{
  "contractName": "Lottery",
  "abi": [
    {
      "inputs": [],
      "stateMutability": "nonpayable",
      "type": "constructor"
    },
    {
      "anonymous": false,
      "inputs": [
        {
          "indexed": false,
          "internalType": "uint256",
          "name": "index",
          "type": "uint256"
        },
        {
          "indexed": false,
          "internalType": "address",
          "name": "gambler",
          "type": "address"
        },
        {
          "indexed": false,
          "internalType": "uint256",
          "name": "amount",
          "type": "uint256"
        },
        {
          "indexed": false,
          "internalType": "bytes1",
          "name": "challenges",
          "type": "bytes1"
        },
        {
          "indexed": false,
          "internalType": "uint256",
          "name": "answerBlockNumber",
          "type": "uint256"
        }
      ],
      "name": "BET",
      "type": "event"
    },
    {
      "inputs": [],
      "name": "owner",
      "outputs": [
        {
          "internalType": "address",
          "name": "",
          "type": "address"
        }
      ],
      "stateMutability": "view",
      "type": "function"
    },
    {
      "inputs": [
        {
          "internalType": "bytes1",
          "name": "challenges",
          "type": "bytes1"
        }
      ],
      "name": "bet",
      "outputs": [
        {
          "internalType": "bool",
          "name": "",
          "type": "bool"
        }
      ],
      "stateMutability": "payable",
      "type": "function"
    },
    {
      "inputs": [],
      "name": "distribute",
      "outputs": [],
      "stateMutability": "nonpayable",
      "type": "function"
    },
    {
      "inputs": [],
      "name": "getPot",
      "outputs": [
        {
          "internalType": "uint256",
          "name": "pot",
          "type": "uint256"
        }
      ],
      "stateMutability": "view",
      "type": "function"
    },
    {
      "inputs": [
        {
          "internalType": "uint256",
          "name": "index",
          "type": "uint256"
        }
      ],
      "name": "getBetInfo",
      "outputs": [
        {
          "internalType": "uint256",
          "name": "answerBlockNumber",
          "type": "uint256"
        },
        {
          "internalType": "address",
          "name": "gambler",
          "type": "address"
        },
        {
          "internalType": "bytes1",
          "name": "challenges",
          "type": "bytes1"
        }
      ],
      "stateMutability": "view",
      "type": "function"
    },
    {
      "inputs": [
        {
          "internalType": "bytes1",
          "name": "challenges",
          "type": "bytes1"
        },
        {
          "internalType": "bytes32",
          "name": "answer",
          "type": "bytes32"
        }
      ],
      "name": "isMatch",
      "outputs": [
        {
          "internalType": "enum Lottery.BettingResult",
          "name": "",
          "type": "uint8"
        }
      ],
      "stateMutability": "pure",
      "type": "function"
    }
  ],
  "bytecode": "0x608060405234801561001057600080fd5b50336000806101000a81548173ffffffffffffffffffffffffffffffffffffffff021916908373ffffffffffffffffffffffffffffffffffffffff160217905550610fcf806100606000396000f3fe6080604052600436106100555760003560e01c8063403c9fa81461005a57806379141f80146100855780638da5cb5b146100c457806399a167d7146100ef578063e4fc6b6d1461012c578063f4b46f5b14610143575b600080fd5b34801561006657600080fd5b5061006f610173565b60405161007c9190610a4e565b60405180910390f35b34801561009157600080fd5b506100ac60048036038101906100a79190610a9a565b61017d565b6040516100bb93929190610b43565b60405180910390f35b3480156100d057600080fd5b506100d961027b565b6040516100e69190610b7a565b60405180910390f35b3480156100fb57600080fd5b5061011660048036038101906101119190610bf7565b61029f565b6040516101239190610cae565b60405180910390f35b34801561013857600080fd5b50610141610460565b005b61015d60048036038101906101589190610cc9565b61060a565b60405161016a9190610d11565b60405180910390f35b6000600454905090565b60008060008060016000868152602001908152602001600020604051806060016040529081600082015481526020016001820160009054906101000a900473ffffffffffffffffffffffffffffffffffffffff1673ffffffffffffffffffffffffffffffffffffffff1673ffffffffffffffffffffffffffffffffffffffff1681526020016001820160149054906101000a900460f81b7effffffffffffffffffffffffffffffffffffffffffffffffffffffffffffff19167effffffffffffffffffffffffffffffffffffffffffffffffffffffffffffff1916815250509050806000015193508060200151925080604001519150509193909250565b60008054906101000a900473ffffffffffffffffffffffffffffffffffffffff1681565b6000806102ab846106ff565b905060006102b885610760565b905060006102dc856000602081106102d3576102d2610d2c565b5b1a60f81b6106ff565b90506000610300866000602081106102f7576102f6610d2c565b5b1a60f81b610760565b9050817effffffffffffffffffffffffffffffffffffffffffffffffffffffffffffff1916847effffffffffffffffffffffffffffffffffffffffffffffffffffffffffffff19161480156103985750807effffffffffffffffffffffffffffffffffffffffffffffffffffffffffffff1916837effffffffffffffffffffffffffffffffffffffffffffffffffffffffffffff1916145b156103aa57600094505050505061045a565b817effffffffffffffffffffffffffffffffffffffffffffffffffffffffffffff1916847effffffffffffffffffffffffffffffffffffffffffffffffffffffffffffff1916148061043f5750807effffffffffffffffffffffffffffffffffffffffffffffffffffffffffffff1916837effffffffffffffffffffffffffffffffffffffffffffffffffffffffffffff1916145b1561045157600294505050505061045a565b60019450505050505b92915050565b600061046a6109dc565b600060035492505b60025483116106055760016000848152602001908152602001600020604051806060016040529081600082015481526020016001820160009054906101000a900473ffffffffffffffffffffffffffffffffffffffff1673ffffffffffffffffffffffffffffffffffffffff1673ffffffffffffffffffffffffffffffffffffffff1681526020016001820160149054906101000a900460f81b7effffffffffffffffffffffffffffffffffffffffffffffffffffffffffffff19167effffffffffffffffffffffffffffffffffffffffffffffffffffffffffffff191681525050915061056382600001516107c1565b90506000600281111561057957610578610c37565b5b81600281111561058c5761058b610c37565b5b5050600160028111156105a2576105a1610c37565b5b8160028111156105b5576105b4610c37565b5b14156105c057610605565b6002808111156105d3576105d2610c37565b5b8160028111156105e6576105e5610c37565b5b50506105f183610823565b5082806105fd90610d8a565b935050610472565b505050565b60006611c37937e080003414610655576040517f08c379a000000000000000000000000000000000000000000000000000000000815260040161064c90610e30565b60405180910390fd5b61065e82610887565b61069d576040517f08c379a000000000000000000000000000000000000000000000000000000000815260040161069490610e9c565b60405180910390fd5b7f100791de9f40bf2d56ffa6dc5597d2fd0b2703ea70bc7548cd74c04f5d215ab760016002546106cd9190610ebc565b3334856003436106dd9190610ef0565b6040516106ee959493929190610f46565b60405180910390a160019050919050565b6000808290506004817effffffffffffffffffffffffffffffffffffffffffffffffffffffffffffff1916901c90506004817effffffffffffffffffffffffffffffffffffffffffffffffffffffffffffff1916901b905080915050919050565b6000808290506004817effffffffffffffffffffffffffffffffffffffffffffffffffffffffffffff1916901b90506004817effffffffffffffffffffffffffffffffffffffffffffffffffffffffffffff1916901c905080915050919050565b600081431180156107de5750610100826107db9190610ef0565b43105b156107ec576000905061081e565b8143116107fc576001905061081e565b6101008261080a9190610ef0565b4310610819576002905061081e565b600290505b919050565b6000600160008381526020019081526020016000206000808201600090556001820160006101000a81549073ffffffffffffffffffffffffffffffffffffffff02191690556001820160146101000a81549060ff0219169055505060019050919050565b60006108916109dc565b33816020019073ffffffffffffffffffffffffffffffffffffffff16908173ffffffffffffffffffffffffffffffffffffffff16815250506003436108d69190610ef0565b8160000181815250508281604001907effffffffffffffffffffffffffffffffffffffffffffffffffffffffffffff191690817effffffffffffffffffffffffffffffffffffffffffffffffffffffffffffff191681525050806001600060025481526020019081526020016000206000820151816000015560208201518160010160006101000a81548173ffffffffffffffffffffffffffffffffffffffff021916908373ffffffffffffffffffffffffffffffffffffffff16021790555060408201518160010160146101000a81548160ff021916908360f81c0217905550905050600260008154809291906109cd90610d8a565b91905055506001915050919050565b604051806060016040528060008152602001600073ffffffffffffffffffffffffffffffffffffffff16815260200160007effffffffffffffffffffffffffffffffffffffffffffffffffffffffffffff191681525090565b6000819050919050565b610a4881610a35565b82525050565b6000602082019050610a636000830184610a3f565b92915050565b600080fd5b610a7781610a35565b8114610a8257600080fd5b50565b600081359050610a9481610a6e565b92915050565b600060208284031215610ab057610aaf610a69565b5b6000610abe84828501610a85565b91505092915050565b600073ffffffffffffffffffffffffffffffffffffffff82169050919050565b6000610af282610ac7565b9050919050565b610b0281610ae7565b82525050565b60007fff0000000000000000000000000000000000000000000000000000000000000082169050919050565b610b3d81610b08565b82525050565b6000606082019050610b586000830186610a3f565b610b656020830185610af9565b610b726040830184610b34565b949350505050565b6000602082019050610b8f6000830184610af9565b92915050565b610b9e81610b08565b8114610ba957600080fd5b50565b600081359050610bbb81610b95565b92915050565b6000819050919050565b610bd481610bc1565b8114610bdf57600080fd5b50565b600081359050610bf181610bcb565b92915050565b60008060408385031215610c0e57610c0d610a69565b5b6000610c1c85828601610bac565b9250506020610c2d85828601610be2565b9150509250929050565b7f4e487b7100000000000000000000000000000000000000000000000000000000600052602160045260246000fd5b60038110610c7757610c76610c37565b5b50565b6000819050610c8882610c66565b919050565b6000610c9882610c7a565b9050919050565b610ca881610c8d565b82525050565b6000602082019050610cc36000830184610c9f565b92915050565b600060208284031215610cdf57610cde610a69565b5b6000610ced84828501610bac565b91505092915050565b60008115159050919050565b610d0b81610cf6565b82525050565b6000602082019050610d266000830184610d02565b92915050565b7f4e487b7100000000000000000000000000000000000000000000000000000000600052603260045260246000fd5b7f4e487b7100000000000000000000000000000000000000000000000000000000600052601160045260246000fd5b6000610d9582610a35565b91507fffffffffffffffffffffffffffffffffffffffffffffffffffffffffffffffff821415610dc857610dc7610d5b565b5b600182019050919050565b600082825260208201905092915050565b7f4e6f7420656e6f75676820455448000000000000000000000000000000000000600082015250565b6000610e1a600e83610dd3565b9150610e2582610de4565b602082019050919050565b60006020820190508181036000830152610e4981610e0d565b9050919050565b7f4661696c20746f206164206e65772042657420496e666f000000000000000000600082015250565b6000610e86601783610dd3565b9150610e9182610e50565b602082019050919050565b60006020820190508181036000830152610eb581610e79565b9050919050565b6000610ec782610a35565b9150610ed283610a35565b925082821015610ee557610ee4610d5b565b5b828203905092915050565b6000610efb82610a35565b9150610f0683610a35565b9250827fffffffffffffffffffffffffffffffffffffffffffffffffffffffffffffffff03821115610f3b57610f3a610d5b565b5b828201905092915050565b600060a082019050610f5b6000830188610a3f565b610f686020830187610af9565b610f756040830186610a3f565b610f826060830185610b34565b610f8f6080830184610a3f565b969550505050505056fea264697066735822122066a1923bd1b44fe264b9ad437e4f2cf137077fb575859e3b08e2d14a2edec22b64736f6c634300080a0033",
  "immutableReferences": {},
  "source": "// SPDX-License-Identifier: UNLICENSED\npragma solidity >=0.4.22 <0.9.0;\n\ncontract Lottery {\n    struct BetInfo {\n        uint answerBlockNumber;\n        address payable gambler;\n        bytes1 challenges;\n    }\n\n    address public owner;\n\n    uint constant internal BLOCK_LIMIT = 256;\n    uint constant internal BET_BLOCK_INTERVAL = 3;\n    uint constant internal BET_AMOUNT = 0.005 ether;\n\n    mapping(uint => BetInfo) private _bets;\n    uint private _tail;\n    uint private _head;\n    uint private _pot;\n\n    enum BlockStatus {\n        Checkable, NotRevealed, BlockLimitPassed\n    }\n\n    enum BettingResult {\n        Win, Fail, Draw\n    }\n\n    event BET(uint index, address gambler, uint amount, bytes1 challenges, uint answerBlockNumber);\n\n    constructor() {\n        owner = msg.sender;\n    }\n\n    /**\n     * @dev  .  0.005 ETH ,          .( 0x )\n     * @param challenges \n     * @return     \n     */\n    function bet(bytes1 challenges) public payable returns (bool) {\n        require(msg.value == BET_AMOUNT, \"Not enough ETH\");\n\n        require(pushBet(challenges), \"Fail to ad new Bet Info\");\n\n        emit BET(_tail - 1, msg.sender, msg.value, challenges, block.number + BET_BLOCK_INTERVAL);\n\n        return true;\n    }\n\n    function distribute() public {\n        uint cur;\n        BetInfo memory b;\n        BlockStatus currentBlockStatus;\n        for(cur=_head; cur <= _tail; cur++) {\n            b = _bets[cur];\n            currentBlockStatus = getBlockStatus(b.answerBlockNumber);\n            if(currentBlockStatus == BlockStatus.Checkable) {\n\n            }\n\n            if(currentBlockStatus == BlockStatus.NotRevealed) {\n                break;\n            }\n\n            if(currentBlockStatus == BlockStatus.BlockLimitPassed) {\n                \n            }\n            popBet(cur);\n        }\n\n    }\n\n    function getPot() public view returns(uint pot) {\n        return _pot;\n    }\n\n    function getBetInfo(uint index) public view returns (uint answerBlockNumber, address gambler, bytes1 challenges) {\n        BetInfo memory b = _bets[index];\n        answerBlockNumber = b.answerBlockNumber;\n        gambler = b.gambler;\n        challenges = b.challenges;\n    }\n\n    /**\n     * @dev    .\n     * @param challenges  \n     * @param answer  \n     * @return \n     */\n    function isMatch(bytes1 challenges, bytes32 answer) public pure returns(BettingResult) {\n        bytes1 c1 = getFirstWord(challenges);\n        bytes1 c2 = getSecondWord(challenges);\n\n        bytes1 a1 = getFirstWord(answer[0]);\n        bytes1 a2 = getSecondWord(answer[0]);\n\n        if (c1 == a1 && c2 == a2) {\n            return BettingResult.Win;\n        }\n\n        if (c1 == a1 || c2 == a2) {\n            return BettingResult.Draw;\n        }\n\n        return BettingResult.Fail;\n    }\n\n    function getFirstWord(bytes1 word) internal pure returns(bytes1) {\n        bytes1 w = word;\n        w = w >> 4;\n        w = w << 4;\n        return w;\n    }\n\n    function getSecondWord(bytes1 word) internal pure returns(bytes1) {\n        bytes1 w = word;\n        w = w << 4;\n        w = w >> 4;\n        return w;\n    }\n\n    function pushBet(bytes1 challenges) internal returns (bool) {\n        BetInfo memory b;\n        b.gambler = payable(msg.sender);\n        b.answerBlockNumber = block.number + BET_BLOCK_INTERVAL;\n        b.challenges = challenges;\n\n        _bets[_tail] = b;\n        _tail++;\n\n        return true;\n    }\n\n    function popBet(uint index) internal returns (bool) {\n        delete _bets[index];\n        return true;\n    }\n\n    function getBlockStatus(uint answerBlockNumber) internal view returns(BlockStatus) {\n        if(block.number > answerBlockNumber && block.number < answerBlockNumber + BLOCK_LIMIT) {\n            return BlockStatus.Checkable;\n        }\n\n        if(block.number <= answerBlockNumber) {\n            return BlockStatus.NotRevealed;\n        }\n\n        if(block.number >= answerBlockNumber + BLOCK_LIMIT) {\n            return BlockStatus.BlockLimitPassed;\n        }\n\n        return BlockStatus.BlockLimitPassed;\n    }\n\n}\n",
  "sourcePath": "C:\\Users\\ygaso\\workspace\\lottery-dapp\\contracts\\Lottery.sol",
  "compiler": {
    "name": "solc",
    "version": "0.8.10+commit.fc410830.Emscripten.clang"
  },
  "schemaVersion": "3.4.4",
  "updatedAt": "2022-01-16T08:21:26.827Z",
  "devdoc": {
    "kind": "dev",
    "methods": {
      "bet(bytes1)": {
        "details": " .  0.005 ETH ,          .( 0x )",
        "params": {
          "challenges": ""
        },
        "returns": {
          "_0": "    "
        }
      },
      "isMatch(bytes1,bytes32)": {
        "details": "   .",
        "params": {
          "answer": " ",
          "challenges": " "
        },
        "returns": {
          "_0": ""
        }
      }
    },
    "version": 1
  },
  "userdoc": {
    "kind": "user",
    "methods": {},
    "version": 1
  }
}