{
  "contractName": "Lottery",
  "abi": [
    {
      "inputs": [],
      "stateMutability": "nonpayable",
      "type": "constructor"
    },
    {
      "anonymous": false,
      "inputs": [
        {
          "indexed": false,
          "internalType": "uint256",
          "name": "index",
          "type": "uint256"
        },
        {
          "indexed": false,
          "internalType": "address",
          "name": "gambler",
          "type": "address"
        },
        {
          "indexed": false,
          "internalType": "uint256",
          "name": "amount",
          "type": "uint256"
        },
        {
          "indexed": false,
          "internalType": "bytes1",
          "name": "challenges",
          "type": "bytes1"
        },
        {
          "indexed": false,
          "internalType": "uint256",
          "name": "answerBlockNumber",
          "type": "uint256"
        }
      ],
      "name": "BET",
      "type": "event"
    },
    {
      "anonymous": false,
      "inputs": [
        {
          "indexed": false,
          "internalType": "uint256",
          "name": "index",
          "type": "uint256"
        },
        {
          "indexed": false,
          "internalType": "address",
          "name": "gambler",
          "type": "address"
        },
        {
          "indexed": false,
          "internalType": "uint256",
          "name": "amount",
          "type": "uint256"
        },
        {
          "indexed": false,
          "internalType": "bytes1",
          "name": "challenges",
          "type": "bytes1"
        },
        {
          "indexed": false,
          "internalType": "bytes1",
          "name": "answer",
          "type": "bytes1"
        },
        {
          "indexed": false,
          "internalType": "uint256",
          "name": "answerBlockNumber",
          "type": "uint256"
        }
      ],
      "name": "DRAW",
      "type": "event"
    },
    {
      "anonymous": false,
      "inputs": [
        {
          "indexed": false,
          "internalType": "uint256",
          "name": "index",
          "type": "uint256"
        },
        {
          "indexed": false,
          "internalType": "address",
          "name": "gambler",
          "type": "address"
        },
        {
          "indexed": false,
          "internalType": "uint256",
          "name": "amount",
          "type": "uint256"
        },
        {
          "indexed": false,
          "internalType": "bytes1",
          "name": "challenges",
          "type": "bytes1"
        },
        {
          "indexed": false,
          "internalType": "bytes1",
          "name": "answer",
          "type": "bytes1"
        },
        {
          "indexed": false,
          "internalType": "uint256",
          "name": "answerBlockNumber",
          "type": "uint256"
        }
      ],
      "name": "FAIL",
      "type": "event"
    },
    {
      "anonymous": false,
      "inputs": [
        {
          "indexed": false,
          "internalType": "uint256",
          "name": "index",
          "type": "uint256"
        },
        {
          "indexed": false,
          "internalType": "address",
          "name": "gambler",
          "type": "address"
        },
        {
          "indexed": false,
          "internalType": "uint256",
          "name": "amount",
          "type": "uint256"
        },
        {
          "indexed": false,
          "internalType": "bytes1",
          "name": "challenges",
          "type": "bytes1"
        },
        {
          "indexed": false,
          "internalType": "uint256",
          "name": "answerBlockNumber",
          "type": "uint256"
        }
      ],
      "name": "REFUND",
      "type": "event"
    },
    {
      "anonymous": false,
      "inputs": [
        {
          "indexed": false,
          "internalType": "uint256",
          "name": "index",
          "type": "uint256"
        },
        {
          "indexed": false,
          "internalType": "address",
          "name": "gambler",
          "type": "address"
        },
        {
          "indexed": false,
          "internalType": "uint256",
          "name": "amount",
          "type": "uint256"
        },
        {
          "indexed": false,
          "internalType": "bytes1",
          "name": "challenges",
          "type": "bytes1"
        },
        {
          "indexed": false,
          "internalType": "bytes1",
          "name": "answer",
          "type": "bytes1"
        },
        {
          "indexed": false,
          "internalType": "uint256",
          "name": "answerBlockNumber",
          "type": "uint256"
        }
      ],
      "name": "WIN",
      "type": "event"
    },
    {
      "inputs": [],
      "name": "answerForTest",
      "outputs": [
        {
          "internalType": "bytes32",
          "name": "",
          "type": "bytes32"
        }
      ],
      "stateMutability": "view",
      "type": "function"
    },
    {
      "inputs": [],
      "name": "owner",
      "outputs": [
        {
          "internalType": "address payable",
          "name": "",
          "type": "address"
        }
      ],
      "stateMutability": "view",
      "type": "function"
    },
    {
      "inputs": [
        {
          "internalType": "bytes1",
          "name": "challenges",
          "type": "bytes1"
        }
      ],
      "name": "bet",
      "outputs": [
        {
          "internalType": "bool",
          "name": "",
          "type": "bool"
        }
      ],
      "stateMutability": "payable",
      "type": "function"
    },
    {
      "inputs": [],
      "name": "distribute",
      "outputs": [],
      "stateMutability": "nonpayable",
      "type": "function"
    },
    {
      "inputs": [],
      "name": "getPot",
      "outputs": [
        {
          "internalType": "uint256",
          "name": "pot",
          "type": "uint256"
        }
      ],
      "stateMutability": "view",
      "type": "function"
    },
    {
      "inputs": [
        {
          "internalType": "uint256",
          "name": "index",
          "type": "uint256"
        }
      ],
      "name": "getBetInfo",
      "outputs": [
        {
          "internalType": "uint256",
          "name": "answerBlockNumber",
          "type": "uint256"
        },
        {
          "internalType": "address",
          "name": "gambler",
          "type": "address"
        },
        {
          "internalType": "bytes1",
          "name": "challenges",
          "type": "bytes1"
        }
      ],
      "stateMutability": "view",
      "type": "function"
    },
    {
      "inputs": [
        {
          "internalType": "bytes1",
          "name": "challenges",
          "type": "bytes1"
        },
        {
          "internalType": "bytes32",
          "name": "answer",
          "type": "bytes32"
        }
      ],
      "name": "isMatch",
      "outputs": [
        {
          "internalType": "enum Lottery.BettingResult",
          "name": "",
          "type": "uint8"
        }
      ],
      "stateMutability": "pure",
      "type": "function"
    },
    {
      "inputs": [
        {
          "internalType": "bytes32",
          "name": "answer",
          "type": "bytes32"
        }
      ],
      "name": "setAnswerForTest",
      "outputs": [
        {
          "internalType": "bool",
          "name": "",
          "type": "bool"
        }
      ],
      "stateMutability": "nonpayable",
      "type": "function"
    }
  ],
  "bytecode": "0x60806040526000600660006101000a81548160ff02191690831515021790555034801561002b57600080fd5b50336000806101000a81548173ffffffffffffffffffffffffffffffffffffffff021916908373ffffffffffffffffffffffffffffffffffffffff1602179055506117d28061007b6000396000f3fe60806040526004361061007b5760003560e01c80638da5cb5b1161004e5780638da5cb5b1461015257806399a167d71461017d578063e4fc6b6d146101ba578063f4b46f5b146101d15761007b565b8063403c9fa8146100805780637009fa36146100ab57806379141f80146100e857806384f7e4f014610127575b600080fd5b34801561008c57600080fd5b50610095610201565b6040516100a29190610f38565b60405180910390f35b3480156100b757600080fd5b506100d260048036038101906100cd9190610f8e565b61020b565b6040516100df9190610fd6565b60405180910390f35b3480156100f457600080fd5b5061010f600480360381019061010a919061101d565b6102ac565b60405161011e939291906110c6565b60405180910390f35b34801561013357600080fd5b5061013c6103aa565b604051610149919061110c565b60405180910390f35b34801561015e57600080fd5b506101676103b0565b6040516101749190611148565b60405180910390f35b34801561018957600080fd5b506101a4600480360381019061019f919061118f565b6103d4565b6040516101b19190611246565b60405180910390f35b3480156101c657600080fd5b506101cf610595565b005b6101eb60048036038101906101e69190611261565b6109f1565b6040516101f89190610fd6565b60405180910390f35b6000600554905090565b60008060009054906101000a900473ffffffffffffffffffffffffffffffffffffffff1673ffffffffffffffffffffffffffffffffffffffff163373ffffffffffffffffffffffffffffffffffffffff161461029c576040517f08c379a000000000000000000000000000000000000000000000000000000000815260040161029390611311565b60405180910390fd5b8160018190555060019050919050565b60008060008060026000868152602001908152602001600020604051806060016040529081600082015481526020016001820160009054906101000a900473ffffffffffffffffffffffffffffffffffffffff1673ffffffffffffffffffffffffffffffffffffffff1673ffffffffffffffffffffffffffffffffffffffff1681526020016001820160149054906101000a900460f81b7effffffffffffffffffffffffffffffffffffffffffffffffffffffffffffff19167effffffffffffffffffffffffffffffffffffffffffffffffffffffffffffff1916815250509050806000015193508060200151925080604001519150509193909250565b60015481565b60008054906101000a900473ffffffffffffffffffffffffffffffffffffffff1681565b6000806103e084610ae6565b905060006103ed85610b47565b905060006104118560006020811061040857610407611331565b5b1a60f81b610ae6565b905060006104358660006020811061042c5761042b611331565b5b1a60f81b610b47565b9050817effffffffffffffffffffffffffffffffffffffffffffffffffffffffffffff1916847effffffffffffffffffffffffffffffffffffffffffffffffffffffffffffff19161480156104cd5750807effffffffffffffffffffffffffffffffffffffffffffffffffffffffffffff1916837effffffffffffffffffffffffffffffffffffffffffffffffffffffffffffff1916145b156104df57600094505050505061058f565b817effffffffffffffffffffffffffffffffffffffffffffffffffffffffffffff1916847effffffffffffffffffffffffffffffffffffffffffffffffffffffffffffff191614806105745750807effffffffffffffffffffffffffffffffffffffffffffffffffffffffffffff1916837effffffffffffffffffffffffffffffffffffffffffffffffffffffffffffff1916145b1561058657600294505050505061058f565b60019450505050505b92915050565b6000806105a0610ec6565b60008060045494505b60035485116109e35760026000868152602001908152602001600020604051806060016040529081600082015481526020016001820160009054906101000a900473ffffffffffffffffffffffffffffffffffffffff1673ffffffffffffffffffffffffffffffffffffffff1673ffffffffffffffffffffffffffffffffffffffff1681526020016001820160149054906101000a900460f81b7effffffffffffffffffffffffffffffffffffffffffffffffffffffffffffff19167effffffffffffffffffffffffffffffffffffffffffffffffffffffffffffff191681525050925061069a8360000151610ba8565b9150600060028111156106b0576106af6111cf565b5b8260028111156106c3576106c26111cf565b5b14156109055760006106d88460000151610c0a565b90506106e88460400151826103d4565b9150600060028111156106fe576106fd6111cf565b5b826002811115610711576107106111cf565b5b14156107a85761073984602001516611c37937e08000600554610734919061138f565b610c32565b945060006005819055507f8219079e2d6c1192fb0ff7f78e6faaf5528ad6687e69749205d87bd4b156912b8685602001518787604001518560006020811061078457610783611331565b5b1a60f81b896000015160405161079f96959493929190611444565b60405180910390a15b600160028111156107bc576107bb6111cf565b5b8260028111156107cf576107ce6111cf565b5b141561085b576611c37937e08000600560008282546107ee919061138f565b925050819055507f3b19d607433249d2ebc766ae82ca3848e9c064f1febb5147bc6e5b21d0adebc5868560200151600087604001518560006020811061083757610836611331565b5b1a60f81b8960000151604051610852969594939291906114e0565b60405180910390a15b60028081111561086e5761086d6111cf565b5b826002811115610881576108806111cf565b5b14156109035761089c84602001516611c37937e08000610c32565b94507f72ec2e949e4fad9380f9d5db3e2ed0e71cf22c51d8d66424508bdc761a3f4b0e868560200151878760400151856000602081106108df576108de611331565b5b1a60f81b89600001516040516108fa96959493929190611444565b60405180910390a15b505b60016002811115610919576109186111cf565b5b82600281111561092c5761092b6111cf565b5b1415610937576109e3565b60028081111561094a576109496111cf565b5b82600281111561095d5761095c6111cf565b5b14156109c65761097883602001516611c37937e08000610c32565b93507f59c0185881271a0f53d43e6ab9310091408f9e0ff9ae2512613de800f26b8de485846020015186866040015187600001516040516109bd959493929190611541565b60405180910390a15b6109cf85610d0d565b5084806109db90611594565b9550506105a9565b846004819055505050505050565b60006611c37937e080003414610a3c576040517f08c379a0000000000000000000000000000000000000000000000000000000008152600401610a3390611629565b60405180910390fd5b610a4582610d71565b610a84576040517f08c379a0000000000000000000000000000000000000000000000000000000008152600401610a7b90611695565b60405180910390fd5b7f100791de9f40bf2d56ffa6dc5597d2fd0b2703ea70bc7548cd74c04f5d215ab76001600354610ab491906116b5565b333485600343610ac4919061138f565b604051610ad59594939291906116e9565b60405180910390a160019050919050565b6000808290506004817effffffffffffffffffffffffffffffffffffffffffffffffffffffffffffff1916901c90506004817effffffffffffffffffffffffffffffffffffffffffffffffffffffffffffff1916901b905080915050919050565b6000808290506004817effffffffffffffffffffffffffffffffffffffffffffffffffffffffffffff1916901b90506004817effffffffffffffffffffffffffffffffffffffffffffffffffffffffffffff1916901c905080915050919050565b60008143118015610bc5575061010082610bc2919061138f565b43105b15610bd35760009050610c05565b814311610be35760019050610c05565b61010082610bf1919061138f565b4310610c005760029050610c05565b600290505b919050565b6000600660009054906101000a900460ff16610c2857600154610c2b565b81405b9050919050565b600080606483610c42919061176b565b905060008184610c5291906116b5565b90508473ffffffffffffffffffffffffffffffffffffffff166108fc829081150290604051600060405180830381858888f19350505050158015610c9a573d6000803e3d6000fd5b5060008054906101000a900473ffffffffffffffffffffffffffffffffffffffff1673ffffffffffffffffffffffffffffffffffffffff166108fc839081150290604051600060405180830381858888f19350505050158015610d01573d6000803e3d6000fd5b50809250505092915050565b6000600260008381526020019081526020016000206000808201600090556001820160006101000a81549073ffffffffffffffffffffffffffffffffffffffff02191690556001820160146101000a81549060ff0219169055505060019050919050565b6000610d7b610ec6565b33816020019073ffffffffffffffffffffffffffffffffffffffff16908173ffffffffffffffffffffffffffffffffffffffff1681525050600343610dc0919061138f565b8160000181815250508281604001907effffffffffffffffffffffffffffffffffffffffffffffffffffffffffffff191690817effffffffffffffffffffffffffffffffffffffffffffffffffffffffffffff191681525050806002600060035481526020019081526020016000206000820151816000015560208201518160010160006101000a81548173ffffffffffffffffffffffffffffffffffffffff021916908373ffffffffffffffffffffffffffffffffffffffff16021790555060408201518160010160146101000a81548160ff021916908360f81c021790555090505060036000815480929190610eb790611594565b91905055506001915050919050565b604051806060016040528060008152602001600073ffffffffffffffffffffffffffffffffffffffff16815260200160007effffffffffffffffffffffffffffffffffffffffffffffffffffffffffffff191681525090565b6000819050919050565b610f3281610f1f565b82525050565b6000602082019050610f4d6000830184610f29565b92915050565b600080fd5b6000819050919050565b610f6b81610f58565b8114610f7657600080fd5b50565b600081359050610f8881610f62565b92915050565b600060208284031215610fa457610fa3610f53565b5b6000610fb284828501610f79565b91505092915050565b60008115159050919050565b610fd081610fbb565b82525050565b6000602082019050610feb6000830184610fc7565b92915050565b610ffa81610f1f565b811461100557600080fd5b50565b60008135905061101781610ff1565b92915050565b60006020828403121561103357611032610f53565b5b600061104184828501611008565b91505092915050565b600073ffffffffffffffffffffffffffffffffffffffff82169050919050565b60006110758261104a565b9050919050565b6110858161106a565b82525050565b60007fff0000000000000000000000000000000000000000000000000000000000000082169050919050565b6110c08161108b565b82525050565b60006060820190506110db6000830186610f29565b6110e8602083018561107c565b6110f560408301846110b7565b949350505050565b61110681610f58565b82525050565b600060208201905061112160008301846110fd565b92915050565b60006111328261104a565b9050919050565b61114281611127565b82525050565b600060208201905061115d6000830184611139565b92915050565b61116c8161108b565b811461117757600080fd5b50565b60008135905061118981611163565b92915050565b600080604083850312156111a6576111a5610f53565b5b60006111b48582860161117a565b92505060206111c585828601610f79565b9150509250929050565b7f4e487b7100000000000000000000000000000000000000000000000000000000600052602160045260246000fd5b6003811061120f5761120e6111cf565b5b50565b6000819050611220826111fe565b919050565b600061123082611212565b9050919050565b61124081611225565b82525050565b600060208201905061125b6000830184611237565b92915050565b60006020828403121561127757611276610f53565b5b60006112858482850161117a565b91505092915050565b600082825260208201905092915050565b7f6f6e6c79206f776e65722063616e2073657420616e7377657220666f7220746560008201527f7374000000000000000000000000000000000000000000000000000000000000602082015250565b60006112fb60228361128e565b91506113068261129f565b604082019050919050565b6000602082019050818103600083015261132a816112ee565b9050919050565b7f4e487b7100000000000000000000000000000000000000000000000000000000600052603260045260246000fd5b7f4e487b7100000000000000000000000000000000000000000000000000000000600052601160045260246000fd5b600061139a82610f1f565b91506113a583610f1f565b9250827fffffffffffffffffffffffffffffffffffffffffffffffffffffffffffffffff038211156113da576113d9611360565b5b828201905092915050565b6000819050919050565b600061140a6114056114008461104a565b6113e5565b61104a565b9050919050565b600061141c826113ef565b9050919050565b600061142e82611411565b9050919050565b61143e81611423565b82525050565b600060c0820190506114596000830189610f29565b6114666020830188611435565b6114736040830187610f29565b61148060608301866110b7565b61148d60808301856110b7565b61149a60a0830184610f29565b979650505050505050565b6000819050919050565b60006114ca6114c56114c0846114a5565b6113e5565b610f1f565b9050919050565b6114da816114af565b82525050565b600060c0820190506114f56000830189610f29565b6115026020830188611435565b61150f60408301876114d1565b61151c60608301866110b7565b61152960808301856110b7565b61153660a0830184610f29565b979650505050505050565b600060a0820190506115566000830188610f29565b6115636020830187611435565b6115706040830186610f29565b61157d60608301856110b7565b61158a6080830184610f29565b9695505050505050565b600061159f82610f1f565b91507fffffffffffffffffffffffffffffffffffffffffffffffffffffffffffffffff8214156115d2576115d1611360565b5b600182019050919050565b7f4e6f7420656e6f75676820455448000000000000000000000000000000000000600082015250565b6000611613600e8361128e565b915061161e826115dd565b602082019050919050565b6000602082019050818103600083015261164281611606565b9050919050565b7f4661696c20746f206164206e65772042657420496e666f000000000000000000600082015250565b600061167f60178361128e565b915061168a82611649565b602082019050919050565b600060208201905081810360008301526116ae81611672565b9050919050565b60006116c082610f1f565b91506116cb83610f1f565b9250828210156116de576116dd611360565b5b828203905092915050565b600060a0820190506116fe6000830188610f29565b61170b602083018761107c565b6117186040830186610f29565b61172560608301856110b7565b6117326080830184610f29565b9695505050505050565b7f4e487b7100000000000000000000000000000000000000000000000000000000600052601260045260246000fd5b600061177682610f1f565b915061178183610f1f565b9250826117915761179061173c565b5b82820490509291505056fea264697066735822122016fba6f8ddb04e85228ab52f8896157a7608ee39f692428389a85bbf8840193964736f6c634300080a0033",
  "immutableReferences": {},
  "source": "// SPDX-License-Identifier: UNLICENSED\npragma solidity >=0.4.22 <0.9.0;\n\ncontract Lottery {\n    struct BetInfo {\n        uint answerBlockNumber;\n        address payable gambler;\n        bytes1 challenges;\n    }\n\n    address payable public owner;\n    bytes32 public answerForTest;\n\n    uint constant internal BLOCK_LIMIT = 256;\n    uint constant internal BET_BLOCK_INTERVAL = 3;\n    uint constant internal BET_AMOUNT = 0.005 ether;\n\n    mapping(uint => BetInfo) private _bets;\n    uint private _tail;\n    uint private _head;\n    uint private _pot;\n    bool private mode = false; // false: test mode, true: real mode\n\n    enum BlockStatus {\n        Checkable, NotRevealed, BlockLimitPassed\n    }\n\n    enum BettingResult {\n        Win, Fail, Draw\n    }\n\n    event BET(uint index, address gambler, uint amount, bytes1 challenges, uint answerBlockNumber);\n    event WIN(uint index, address gambler, uint amount, bytes1 challenges, bytes1 answer, uint answerBlockNumber);\n    event FAIL(uint index, address gambler, uint amount, bytes1 challenges, bytes1 answer, uint answerBlockNumber);\n    event DRAW(uint index, address gambler, uint amount, bytes1 challenges, bytes1 answer, uint answerBlockNumber);\n    event REFUND(uint index, address gambler, uint amount, bytes1 challenges, uint answerBlockNumber);\n    constructor() {\n        owner = payable(msg.sender);\n    }\n\n    /**\n     * @dev  .  0.005 ETH ,          .( 0x )\n     * @param challenges \n     * @return     \n     */\n    function bet(bytes1 challenges) public payable returns (bool) {\n        require(msg.value == BET_AMOUNT, \"Not enough ETH\");\n\n        require(pushBet(challenges), \"Fail to ad new Bet Info\");\n\n        emit BET(_tail - 1, msg.sender, msg.value, challenges, block.number + BET_BLOCK_INTERVAL);\n\n        return true;\n    }\n\n    /**\n     * @dev    .\n     *     :   .\n     *     :  .\n     *         :  .\n     */\n    function distribute() public {\n        uint cur;\n        uint transferAmount;\n        BetInfo memory b;\n        BlockStatus status;\n        BettingResult result;\n\n        for(cur=_head; cur <= _tail; cur++) {\n            b = _bets[cur];\n            status = getBlockStatus(b.answerBlockNumber);\n\n            if(status == BlockStatus.Checkable) {\n                bytes32 answer = getAnswerBlock(b.answerBlockNumber);\n                result = isMatch(b.challenges, answer);\n                \n                if(result == BettingResult.Win) {\n                    transferAmount = transferAfterPayingFee(b.gambler, _pot + BET_AMOUNT);\n                    _pot = 0;\n\n                    emit WIN(cur, b.gambler, transferAmount, b.challenges, answer[0], b.answerBlockNumber);\n                }\n\n                if(result == BettingResult.Fail) {\n                    _pot += BET_AMOUNT;\n\n                    emit FAIL(cur, b.gambler, 0, b.challenges, answer[0], b.answerBlockNumber);\n                }\n\n                if(result == BettingResult.Draw) {\n                    transferAmount = transferAfterPayingFee(b.gambler, BET_AMOUNT);\n\n                    emit DRAW(cur, b.gambler, transferAmount, b.challenges, answer[0], b.answerBlockNumber);\n                }\n            }\n\n            if(status == BlockStatus.NotRevealed) {\n                break;\n            }\n\n            if(status == BlockStatus.BlockLimitPassed) {\n                transferAmount = transferAfterPayingFee(b.gambler, BET_AMOUNT);\n\n                emit REFUND(cur, b.gambler, transferAmount, b.challenges, b.answerBlockNumber);\n            }\n \n            \n            popBet(cur);\n        }\n\n        _head = cur;\n    }\n\n    function getPot() public view returns(uint pot) {\n        return _pot;\n    }\n\n    function getBetInfo(uint index) public view returns (uint answerBlockNumber, address gambler, bytes1 challenges) {\n        BetInfo memory b = _bets[index];\n        answerBlockNumber = b.answerBlockNumber;\n        gambler = b.gambler;\n        challenges = b.challenges;\n    }\n\n    /**\n     * @dev    .\n     * @param challenges  \n     * @param answer  \n     * @return \n     */\n    function isMatch(bytes1 challenges, bytes32 answer) public pure returns(BettingResult) {\n        bytes1 c1 = getFirstWord(challenges);\n        bytes1 c2 = getSecondWord(challenges);\n\n        bytes1 a1 = getFirstWord(answer[0]);\n        bytes1 a2 = getSecondWord(answer[0]);\n\n        if (c1 == a1 && c2 == a2) {\n            return BettingResult.Win;\n        }\n\n        if (c1 == a1 || c2 == a2) {\n            return BettingResult.Draw;\n        }\n\n        return BettingResult.Fail;\n    }\n\n    function setAnswerForTest(bytes32 answer) public returns(bool) {\n        require(msg.sender == owner, \"only owner can set answer for test\");\n        answerForTest = answer;\n        return true;\n    }\n\n    function getFirstWord(bytes1 word) internal pure returns(bytes1) {\n        bytes1 w = word;\n        w = w >> 4;\n        w = w << 4;\n        return w;\n    }\n\n    function getSecondWord(bytes1 word) internal pure returns(bytes1) {\n        bytes1 w = word;\n        w = w << 4;\n        w = w >> 4;\n        return w;\n    }\n\n    function pushBet(bytes1 challenges) internal returns (bool) {\n        BetInfo memory b;\n        b.gambler = payable(msg.sender);\n        b.answerBlockNumber = block.number + BET_BLOCK_INTERVAL;\n        b.challenges = challenges;\n\n        _bets[_tail] = b;\n        _tail++;\n\n        return true;\n    }\n\n    function popBet(uint index) internal returns (bool) {\n        delete _bets[index];\n        return true;\n    }\n\n    function getBlockStatus(uint answerBlockNumber) internal view returns(BlockStatus) {\n        if(block.number > answerBlockNumber && block.number < answerBlockNumber + BLOCK_LIMIT) {\n            return BlockStatus.Checkable;\n        }\n\n        if(block.number <= answerBlockNumber) {\n            return BlockStatus.NotRevealed;\n        }\n\n        if(block.number >= answerBlockNumber + BLOCK_LIMIT) {\n            return BlockStatus.BlockLimitPassed;\n        }\n\n        return BlockStatus.BlockLimitPassed;\n    }\n\n    function getAnswerBlock(uint answerBlockNumber) internal view returns(bytes32 answer) {\n        return mode ? blockhash(answerBlockNumber) : answerForTest;\n    }\n\n    function transferAfterPayingFee(address payable gambler, uint amount) internal returns (uint) {\n        uint fee = amount / 100;\n        uint amountWithoutFee = amount - fee;\n\n        gambler.transfer(amountWithoutFee);\n\n        owner.transfer(fee);\n\n        return amountWithoutFee;\n    }\n\n}\n",
  "sourcePath": "C:\\Users\\ygaso\\workspace\\lottery-dapp\\contracts\\Lottery.sol",
  "compiler": {
    "name": "solc",
    "version": "0.8.10+commit.fc410830.Emscripten.clang"
  },
  "schemaVersion": "3.4.4",
  "updatedAt": "2022-01-16T09:12:49.460Z",
  "devdoc": {
    "kind": "dev",
    "methods": {
      "bet(bytes1)": {
        "details": " .  0.005 ETH ,          .( 0x )",
        "params": {
          "challenges": ""
        },
        "returns": {
          "_0": "    "
        }
      },
      "distribute()": {
        "details": "   .     :   .     :  .         :  ."
      },
      "isMatch(bytes1,bytes32)": {
        "details": "   .",
        "params": {
          "answer": " ",
          "challenges": " "
        },
        "returns": {
          "_0": ""
        }
      }
    },
    "version": 1
  },
  "userdoc": {
    "kind": "user",
    "methods": {},
    "version": 1
  }
}