{
  "contractName": "Lottery",
  "abi": [
    {
      "inputs": [],
      "stateMutability": "nonpayable",
      "type": "constructor"
    },
    {
      "anonymous": false,
      "inputs": [
        {
          "indexed": false,
          "internalType": "uint256",
          "name": "index",
          "type": "uint256"
        },
        {
          "indexed": false,
          "internalType": "address",
          "name": "gambler",
          "type": "address"
        },
        {
          "indexed": false,
          "internalType": "uint256",
          "name": "amount",
          "type": "uint256"
        },
        {
          "indexed": false,
          "internalType": "bytes",
          "name": "challenges",
          "type": "bytes"
        },
        {
          "indexed": false,
          "internalType": "uint256",
          "name": "answerBlockNumber",
          "type": "uint256"
        }
      ],
      "name": "BET",
      "type": "event"
    },
    {
      "inputs": [],
      "name": "owner",
      "outputs": [
        {
          "internalType": "address",
          "name": "",
          "type": "address"
        }
      ],
      "stateMutability": "view",
      "type": "function",
      "constant": true
    },
    {
      "inputs": [],
      "name": "getPot",
      "outputs": [
        {
          "internalType": "uint256",
          "name": "pot",
          "type": "uint256"
        }
      ],
      "stateMutability": "view",
      "type": "function",
      "constant": true
    },
    {
      "inputs": [
        {
          "internalType": "bytes",
          "name": "challenges",
          "type": "bytes"
        }
      ],
      "name": "bet",
      "outputs": [
        {
          "internalType": "bool",
          "name": "",
          "type": "bool"
        }
      ],
      "stateMutability": "payable",
      "type": "function",
      "payable": true
    },
    {
      "inputs": [
        {
          "internalType": "uint256",
          "name": "index",
          "type": "uint256"
        }
      ],
      "name": "getBetInfo",
      "outputs": [
        {
          "internalType": "uint256",
          "name": "answerBlockNumber",
          "type": "uint256"
        },
        {
          "internalType": "address",
          "name": "gambler",
          "type": "address"
        },
        {
          "internalType": "bytes",
          "name": "challenges",
          "type": "bytes"
        }
      ],
      "stateMutability": "view",
      "type": "function",
      "constant": true
    }
  ],
  "bytecode": "0x608060405234801561001057600080fd5b50336000806101000a81548173ffffffffffffffffffffffffffffffffffffffff021916908373ffffffffffffffffffffffffffffffffffffffff160217905550610b59806100606000396000f3fe60806040526004361061003f5760003560e01c8063403c9fa814610044578063599eac8a1461006f57806379141f801461009f5780638da5cb5b146100de575b600080fd5b34801561005057600080fd5b50610059610109565b60405161006691906105a6565b60405180910390f35b61008960048036038101906100849190610630565b610113565b6040516100969190610698565b60405180910390f35b3480156100ab57600080fd5b506100c660048036038101906100c191906106df565b61024f565b6040516100d5939291906107e6565b60405180910390f35b3480156100ea57600080fd5b506100f3610385565b6040516101009190610824565b60405180910390f35b6000600454905090565b60006611c37937e08000341461015e576040517f08c379a00000000000000000000000000000000000000000000000000000000081526004016101559061089c565b60405180910390fd5b6101ab83838080601f016020809104026020016040519081016040528093929190818152602001838380828437600081840152601f19601f820116905080830192505050505050506103a9565b6101ea576040517f08c379a00000000000000000000000000000000000000000000000000000000081526004016101e190610908565b60405180910390fd5b7f2fd14896e96d250bb5049b83d0198fc7663c624bc855bd734f54a2d56cab236b600160025461021a9190610957565b3334868660034361022b919061098b565b60405161023d96959493929190610a1d565b60405180910390a16001905092915050565b6000806060600060016000868152602001908152602001600020604051806060016040529081600082015481526020016001820160009054906101000a900473ffffffffffffffffffffffffffffffffffffffff1673ffffffffffffffffffffffffffffffffffffffff1673ffffffffffffffffffffffffffffffffffffffff1681526020016002820180546102e490610aa8565b80601f016020809104026020016040519081016040528092919081815260200182805461031090610aa8565b801561035d5780601f106103325761010080835404028352916020019161035d565b820191906000526020600020905b81548152906001019060200180831161034057829003601f168201915b5050505050815250509050806000015193508060200151925080604001519150509193909250565b60008054906101000a900473ffffffffffffffffffffffffffffffffffffffff1681565b60006103b36104b3565b33816020019073ffffffffffffffffffffffffffffffffffffffff16908173ffffffffffffffffffffffffffffffffffffffff16815250506003436103f8919061098b565b816000018181525050828160400181905250806001600060025481526020019081526020016000206000820151816000015560208201518160010160006101000a81548173ffffffffffffffffffffffffffffffffffffffff021916908373ffffffffffffffffffffffffffffffffffffffff160217905550604082015181600201908051906020019061048d9291906104ea565b50905050600260008154809291906104a490610ada565b91905055506001915050919050565b604051806060016040528060008152602001600073ffffffffffffffffffffffffffffffffffffffff168152602001606081525090565b8280546104f690610aa8565b90600052602060002090601f016020900481019282610518576000855561055f565b82601f1061053157805160ff191683800117855561055f565b8280016001018555821561055f579182015b8281111561055e578251825591602001919060010190610543565b5b50905061056c9190610570565b5090565b5b80821115610589576000816000905550600101610571565b5090565b6000819050919050565b6105a08161058d565b82525050565b60006020820190506105bb6000830184610597565b92915050565b600080fd5b600080fd5b600080fd5b600080fd5b600080fd5b60008083601f8401126105f0576105ef6105cb565b5b8235905067ffffffffffffffff81111561060d5761060c6105d0565b5b602083019150836001820283011115610629576106286105d5565b5b9250929050565b60008060208385031215610647576106466105c1565b5b600083013567ffffffffffffffff811115610665576106646105c6565b5b610671858286016105da565b92509250509250929050565b60008115159050919050565b6106928161067d565b82525050565b60006020820190506106ad6000830184610689565b92915050565b6106bc8161058d565b81146106c757600080fd5b50565b6000813590506106d9816106b3565b92915050565b6000602082840312156106f5576106f46105c1565b5b6000610703848285016106ca565b91505092915050565b600073ffffffffffffffffffffffffffffffffffffffff82169050919050565b60006107378261070c565b9050919050565b6107478161072c565b82525050565b600081519050919050565b600082825260208201905092915050565b60005b8381101561078757808201518184015260208101905061076c565b83811115610796576000848401525b50505050565b6000601f19601f8301169050919050565b60006107b88261074d565b6107c28185610758565b93506107d2818560208601610769565b6107db8161079c565b840191505092915050565b60006060820190506107fb6000830186610597565b610808602083018561073e565b818103604083015261081a81846107ad565b9050949350505050565b6000602082019050610839600083018461073e565b92915050565b600082825260208201905092915050565b7f4e6f7420656e6f75676820455448000000000000000000000000000000000000600082015250565b6000610886600e8361083f565b915061089182610850565b602082019050919050565b600060208201905081810360008301526108b581610879565b9050919050565b7f4661696c20746f206164206e65772042657420496e666f000000000000000000600082015250565b60006108f260178361083f565b91506108fd826108bc565b602082019050919050565b60006020820190508181036000830152610921816108e5565b9050919050565b7f4e487b7100000000000000000000000000000000000000000000000000000000600052601160045260246000fd5b60006109628261058d565b915061096d8361058d565b9250828210156109805761097f610928565b5b828203905092915050565b60006109968261058d565b91506109a18361058d565b9250827fffffffffffffffffffffffffffffffffffffffffffffffffffffffffffffffff038211156109d6576109d5610928565b5b828201905092915050565b82818337600083830152505050565b60006109fc8385610758565b9350610a098385846109e1565b610a128361079c565b840190509392505050565b600060a082019050610a326000830189610597565b610a3f602083018861073e565b610a4c6040830187610597565b8181036060830152610a5f8185876109f0565b9050610a6e6080830184610597565b979650505050505050565b7f4e487b7100000000000000000000000000000000000000000000000000000000600052602260045260246000fd5b60006002820490506001821680610ac057607f821691505b60208210811415610ad457610ad3610a79565b5b50919050565b6000610ae58261058d565b91507fffffffffffffffffffffffffffffffffffffffffffffffffffffffffffffffff821415610b1857610b17610928565b5b60018201905091905056fea26469706673582212202cda8fcb21608fa63cb08dcc2c266690c2acdb6e570fc7e3d3738ea0aa499f6564736f6c634300080a0033",
  "immutableReferences": {},
  "source": "// SPDX-License-Identifier: UNLICENSED\npragma solidity >=0.4.22 <0.9.0;\n\ncontract Lottery {\n    struct BetInfo {\n        uint answerBlockNumber;\n        address payable gambler;\n        bytes challenges;\n    }\n\n    address public owner;\n\n    uint constant internal BLOCK_LIMIT = 256;\n    uint constant internal BET_BLOCK_INTERVAL = 3;\n    uint constant internal BET_AMOUNT = 0.005 ether;\n\n    mapping(uint => BetInfo) private _bets;\n    uint private _tail;\n    uint private _head;\n    uint private _pot;\n\n    event BET(uint index, address gambler, uint amount, bytes challenges, uint answerBlockNumber);\n\n    constructor() {\n        owner = msg.sender;\n    }\n\n    function getPot() public view returns(uint pot) {\n        return _pot;\n    }\n\n    /**\n     * @dev  .  0.005 ETH ,          .\n     * @param challenges \n     * @return     \n     */\n    function bet(bytes calldata challenges) public payable returns (bool) {\n        require(msg.value == BET_AMOUNT, \"Not enough ETH\");\n\n        require(pushBet(challenges), \"Fail to ad new Bet Info\");\n\n        emit BET(_tail - 1, msg.sender, msg.value, challenges, block.number + BET_BLOCK_INTERVAL);\n\n        return true;\n    }\n\n    function getBetInfo(uint index) public view returns (uint answerBlockNumber, address gambler, bytes memory challenges) {\n        BetInfo memory b = _bets[index];\n        answerBlockNumber = b.answerBlockNumber;\n        gambler = b.gambler;\n        challenges = b.challenges;\n    }\n\n    function pushBet(bytes memory challenges) internal returns (bool) {\n        BetInfo memory b;\n        b.gambler = payable(msg.sender);\n        b.answerBlockNumber = block.number + BET_BLOCK_INTERVAL;\n        b.challenges = challenges;\n\n        _bets[_tail] = b;\n        _tail++;\n\n        return true;\n    }\n\n    function popBet(uint index) internal returns (bool) {\n        delete _bets[index];\n        return true;\n    }\n\n    // Distribute\n        // check the answer\n\n\n}\n",
  "sourcePath": "C:\\Users\\ygaso\\workspace\\lottery-dapp\\contracts\\Lottery.sol",
  "compiler": {
    "name": "solc",
    "version": "0.8.10+commit.fc410830.Emscripten.clang"
  },
  "schemaVersion": "3.4.4",
  "updatedAt": "2022-01-15T10:00:27.299Z",
  "networkType": "ethereum",
  "devdoc": {
    "kind": "dev",
    "methods": {
      "bet(bytes)": {
        "details": " .  0.005 ETH ,          .",
        "params": {
          "challenges": ""
        },
        "returns": {
          "_0": "    "
        }
      }
    },
    "version": 1
  },
  "userdoc": {
    "kind": "user",
    "methods": {},
    "version": 1
  }
}